:100000000C9463000C948B000C948B000C94DF0513
:100010000C94DF050C94DF050C948B000C948B0082
:100020000C948B000C948B000C948B000C948B0024
:100030000C948B000C948B000C948B000C948B0014
:100040000C9495050C948B000C9463050C943D0561
:100050000C948B000C948B000C948B000C948B00F4
:100060000C948B000C948B000000000024002700EF
:100070002A0000000008000201000003040700003D
:1000800000000000000000000000250028002B00F8
:1000900000000000230026002900040404040404D6
:1000A0000404020202020202030303030303010227
:1000B00004081020408001020408102001020408F6
:1000C00010205906D80811241FBECFEFD8E0DEBF9C
:1000D000CDBF11E0A0E0B1E0E4EFF7E102C0059090
:1000E0000D92A433B107D9F723E0A4E3B1E001C036
:1000F0001D92A136B207E1F710E0C2E6D0E004C0DD
:100100002197FE010E944B09C136D107C9F70E9411
:1001100004070C94ED0B0C940000FC01918D828D72
:10012000981761F0828DDF01A80FB11D5D968C914B
:10013000928D9F5F9F73928F90E008958FEF9FEF56
:100140000895FC01918D828D981731F0828DE80F12
:10015000F11D858D90E008958FEF9FEF0895FC01CC
:10016000918D228D892F90E0805C9F4F821B910999
:100170008F7399270895FC01848DDF01A80FB11DAD
:10018000A35ABF4F2C91848D90E001968F739927CD
:10019000848FA689B7892C93A089B1898C918064BA
:1001A0008C93938D848D981306C00288F389E02D7B
:1001B00080818F7D80830895EF92FF920F931F932C
:1001C000CF93DF93EC0181E0888F9B8D8C8D98130A
:1001D00005C0E889F989808185FD24C0F62E0B8D44
:1001E00010E00F5F1F4F0F731127E02E8C8DE81268
:1001F0000CC00FB607FCFACFE889F989808185FF2A
:10020000F5CFCE010E94BB00F1CF8B8DFE01E80F30
:10021000F11DE35AFF4FF0820B8FEA89FB89808141
:10022000806207C0EE89FF896083E889F98980814F
:100230008064808381E090E0DF91CF911F910F91E6
:10024000FF90EF900895CF93DF93EC01888D882382
:10025000C9F0EA89FB89808185FD05C0A889B98933
:100260008C9186FD0FC00FB607FCF5CF808185FF0E
:10027000F2CFA889B9898C9185FFEDCFCE010E947C
:10028000BB00E7CFDF91CF91089585EA92E00E940D
:10029000AF0021E0892B09F420E0822F089580E04F
:1002A00090E0892B29F00E94450181110C940000F7
:1002B0000895CF92DF92EF92FF920F931F93CF9307
:1002C000DF936C017A018B01C0E0D0E0CE15DF0531
:1002D00089F0D8016D918D01D601ED91FC910190CD
:1002E000F081E02DC6010995892B11F47E0102C031
:1002F0002196ECCFC701DF91CF911F910F91FF9015
:10030000EF90DF90CF90089590E0FC01EE58FF4F02
:100310003491FC01E255FF4F2491FC01E656FF4F5A
:10032000E491EE2309F43BC0332339F1333091F0EB
:1003300038F43130A9F0323001F584B58F7D12C028
:10034000373091F03830A1F03430B9F4809180002A
:100350008F7D03C0809180008F77809380000DC0D7
:1003600084B58F7784BD09C08091B0008F7703C0BA
:100370008091B0008F7D8093B000F0E0EE0FFF1F02
:10038000EA57FF4FA591B4918FB7F894EC916111A2
:1003900003C020952E2301C02E2B2C938FBF0895D0
:1003A000CF93DF9390E0FC01E255FF4F2491FC01D5
:1003B000E656FF4F8491882361F190E0880F991FE2
:1003C000FC01E859FF4FC591D491FC01EA57FF4F5A
:1003D000A591B491611109C09FB7F89488812095C7
:1003E00082238883EC912E230BC0623061F49FB787
:1003F000F8943881822F809583238883EC912E2B6B
:100400002C939FBF06C08FB7F894E8812E2B2883CA
:100410008FBFDF91CF9108953FB7F8948091750118
:1004200090917601A0917701B091780126B5A89BB3
:1004300005C02F3F19F00196A11DB11D3FBFBA2F76
:10044000A92F982F8827820F911DA11DB11DBC01D6
:10045000CD0142E0660F771F881F991F4A95D1F79B
:10046000089520917B0130917C012817390771F4A0
:100470009091790180917A01981741F0E09179018A
:10048000F0E0EC5CFE4F808190E008958FEF9FEFED
:10049000089508951F93CF93DF93DC015C962D910F
:1004A0003C915D972115310539F481E090E0139678
:1004B0009C938E9312973DC05196ED91FC9152976B
:1004C00050969C915097892F80951FB75E964C91BE
:1004D0005E9741FB772770F941FD6095F894408164
:1004E000772311F0492B01C048234083E90121976C
:1004F000F1F748E0508160FF02C0592B01C058233A
:100500005083E9012197F1F76695415099F77723D8
:1005100021F090818923808303C08081982B908370
:100520001FBF5C968D919C915D970197F1F721E03B
:1005300030E0C901DF91CF911F91089520917B0197
:1005400030917C012817390771F480917A0120914C
:10055000790190E0805C9F4F821B910960E470E01C
:100560000E94E208089580E090E0089520917B01C8
:1005700030917C0128173907B9F490917901809165
:100580007A01981789F0E0917901F0E0EC5CFE4F78
:1005900080812091790130E02F5F3F4F2F73332707
:1005A0002093790190E008958FEF9FEF0895E091F7
:1005B0007B01F0917C01E817F90769F4A389B489FC
:1005C0009C918589809589238C9310927C0110924F
:1005D0007B0181E0089580E008952F923F924F9231
:1005E0005F926F927F928F929F92AF92BF92CF92C3
:1005F000DF92EF92FF920F931F93CF93DF9300D080
:1006000000D0CDB7DEB79C838B838EE480937C00D3
:100610000E940C026B017C0132E0832E912CA12CF4
:10062000B12C0E940C02DC01CB018C199D09AE0992
:10063000BF09883E9340A105B10598F328EEC20E8C
:1006400023E0D21EE11CF11C8A9489288A288B2879
:1006500029F0812C912C54018394E3CF80917A006E
:10066000806480937A0080917A0086FDFCCF80912F
:1006700078002091790030E0322F2227A901330F32
:10068000660B770B9A01AB01282B60E070E381E1E8
:1006900090E00E94180969017A0108EC15E08B814D
:1006A0009C81885B9F4F9A8389832B803C809CE44C
:1006B000290E311CEB81FC8186898E3008F08E502A
:1006C0008770806480937C0080917A00806480933E
:1006D0007A0080917A0086FDFCCF6091780080914D
:1006E000790070E0782BEB81FC8177A366A3072E5D
:1006F000000C880B990B0E94660A4B015C01EB8190
:10070000FC8140AC51AC62AC73ACA30192010E947D
:10071000510920E030E040E85AE30E941B0B9B01A6
:10072000AC01C301B2010E9452099B01AC01EB81F3
:10073000FC8160AF71AF82AF93AFC501B4010E947D
:100740005109EB81FC8160AB71AB82AB93AB9B0138
:10075000AC010E941B0BE981FA8160837183828363
:100760009383F10120813181428153810E9452099A
:10077000F10160837183828393830150110909F031
:1007800099CF20E030E049EB54E40E94C3090E9475
:100790008E0B4B015C01B601DD0C880B990B0E949E
:1007A000660A20E030E04AE754E40E94C30920E0F2
:1007B00030E040E85AE30E941B0BEB81FC81248D62
:1007C000358D468D578D0E941B0BA50194010E940B
:1007D0001B0BEB81FC81608B718B828B938BF10106
:1007E00010821182128213820F900F900F900F903F
:1007F000DF91CF911F910F91FF90EF90DF90CF90FD
:10080000BF90AF909F908F907F906F905F904F9030
:100810003F902F900895009769F0FC01019000200F
:10082000E9F73197AF01481B590BBC0182E493E013
:100830000C94590180E090E008958F929F92AF92BE
:10084000BF920F931F93CF93DF93CDB7DEB7A197DE
:100850000FB6F894DEBF0FBECDBF19A2423008F428
:100860004AE08E010F5D1F4F842E912CA12CB12CDC
:10087000A50194010E94F608E62FB901CA010150B2
:100880001109EA3014F4E05D01C0E95CD801EC9391
:10089000232B242B252B61F7C8010E940B04A19662
:1008A0000FB6F894DEBF0FBECDBFDF91CF911F9181
:1008B0000F91BF90AF909F908F9008954F925F924D
:1008C0006F927F928F929F92AF92BF92CF92DF9260
:1008D000EF92FF926B017C01B42E9B01AC010E9450
:1008E000CE0B882319F080E291E027C02601370162
:1008F000E89477F82FEF3FEF4FE75FE7C301B201CE
:100900000E94CE0B81110DC02FEF3FEF4FE75FE745
:10091000C301B2010E94BE0918161CF484E291E0E2
:100920000CC02FEF3FEF4FE75FE4C701B6010E9415
:10093000160B181684F488E291E0FF90EF90DF9098
:10094000CF90BF90AF909F908F907F906F905F906F
:100950004F900C940B042FEF3FEF4FE75FECC70174
:10096000B6010E94BE0987FDE6CF20E030E0A90174
:10097000C701B6010E94BE0987FF11C0E091420382
:10098000F09143030190F081E02D6DE282E493E069
:1009900009954C01F7FAF094F7F8F09402C0812C15
:1009A000912CA12C60E070E080E09FE3AB1441F05B
:1009B00020E030E040E251E40E94C309A394F6CF66
:1009C0009B01AC01C701B6010E9452092B013C01F9
:1009D0000E94350A6B017C010E94640A9B01AC01F4
:1009E000C301B2010E9451092B013C014AE0C70139
:1009F000B6010E941D047C01E80CF91CBB2031F0FB
:100A00008CE291E00E940B04E80EF91EDB2CDD2045
:100A100021F120E030E040E251E4C301B2010E9444
:100A20001B0B2B013C010E94350A4B01A12CB12C60
:100A30004AE0C501B4010E941D04E80EF91EC5017B
:100A4000B4010E94640A9B01AC01C301B2010E947F
:100A500051092B013C01DA94DACFC701FF90EF90E6
:100A6000DF90CF90BF90AF909F908F907F906F90CE
:100A70005F904F9008950E94E80B1F920F920FB65F
:100A80000F9211242F933F934F935F936F937F9314
:100A90008F939F93AF93BF93EF93FF9385EA92E079
:100AA0000E94BB00FF91EF91BF91AF919F918F91F9
:100AB0007F916F915F914F913F912F910F900FBE5A
:100AC0000F901F9018951F920F920FB60F9211243E
:100AD0002F938F939F93EF93FF93E091B502F09143
:100AE000B6028081E091BB02F091BC0282FD12C08F
:100AF00090818091BE028F5F8F732091BF02821719
:100B000051F0E091BE02F0E0EB55FD4F958F8093E0
:100B1000BE0201C08081FF91EF919F918F912F9133
:100B20000F900FBE0F901F9018951F920F920FB647
:100B30000F9211242F933F938F939F93AF93BF9363
:100B400080917D0190917E01A0917F01B091800103
:100B50003091740123E0230F2D3720F40196A11D5D
:100B6000B11D05C026E8230F0296A11DB11D2093DB
:100B7000740180937D0190937E01A0937F01B093D7
:100B800080018091750190917601A0917701B091DB
:100B900078010196A11DB11D809375019093760196
:100BA000A0937701B0937801BF91AF919F918F91FE
:100BB0003F912F910F900FBE0F901F9018951F928D
:100BC0000F920FB60F9211242F933F934F935F9381
:100BD0006F937F938F939F93AF93BF93EF93FF9305
:100BE000E0917B01F0917C01309709F451C0968D22
:100BF000A685B785858591FF04C09C91892329F43A
:100C000047C09C91892309F043C0A389B4899C9172
:100C10008589809589238C93868997890197F1F737
:100C2000608D718DA685B785558538E020E0CB01B4
:100C30000197F1F7822F90E095958795282F4C9199
:100C4000452309F02068315091F7868D81FD20956C
:100C500080917A0190E001968F7399273091790104
:100C6000381749F0A0917A01B0E0AC5CBE4F2C93EC
:100C700080937A0103C0868D8160868F828D938DEB
:100C80000197F1F7A389B4899C918589892B8C936D
:100C9000FF91EF91BF91AF919F918F917F916F9154
:100CA0005F914F913F912F910F900FBE0F901F902A
:100CB00018951092A8021092A70288EE93E0A0E087
:100CC000B0E08093A9029093AA02A093AB02B093E4
:100CD000AC0224E031E03093A6022093A50225EC7B
:100CE00030E03093B2022093B10224EC30E0309334
:100CF000B4022093B30220EC30E03093B60220938C
:100D0000B50221EC30E03093B8022093B70222EC18
:100D100030E03093BA022093B90226EC30E03093F1
:100D2000BC022093BB021092BE021092BF0210922E
:100D3000C0021092C10210924503109244038093A6
:100D4000460390934703A0934803B093490384E17B
:100D500091E09093430380934203109259031092C1
:100D6000580310925B0310925A0310925D03109285
:100D70005C0310925F0310925E03609160036E7FCC
:100D80006D7F609360036695617081E068278AE0FB
:100D90000E94840161E08AE00E94D001E8EBF0E06B
:100DA000E491E0935203E4EAF0E0E491F0E0EE0F26
:100DB000FF1FEA57FF4F85919491909354038093BE
:100DC000530360E08BE00E94D0018091600381FDBD
:100DD00004C061E08BE00E9484018BE080934E03AD
:100DE000E9EBF0E0E491E0934F03E5EAF0E0E49111
:100DF000F0E0EE0FFF1FE057FF4F85919491909325
:100E00005103809350030895789484B5826084BD23
:100E100084B5816084BD85B5826085BD85B58160FE
:100E200085BD80916E00816080936E00109281007C
:100E30008091810082608093810080918100816037
:100E400080938100809180008160809380008091F8
:100E5000B10084608093B1008091B0008160809384
:100E6000B00080917A00846080937A0080917A004B
:100E7000826080937A0080917A00816080937A000A
:100E800080917A00806880937A001092C10061E0BE
:100E900084E00E94D00160E08BE00E94D00161E01C
:100EA0008AE00E94D00110925D0310925C031092C0
:100EB0005B0310925A0310925903109258038DE964
:100EC00091E090935F0380935E0390914E0396317F
:100ED00008F057C02DEB30E03093590320935803AE
:100EE0002BE931E030935B0320935A032CE231E08D
:100EF00030935D0320935C0320916800983050F09C
:100F000031E09E3008F430E081E001C0880F3A956E
:100F1000EAF701C084E0822B80936800983038F0B3
:100F20009E3040F0963148F020E030E008C02DE6D9
:100F300030E005C02BE630E002C02CE630E0309314
:100F4000560320935503983030F481E001C0880F98
:100F50009A95EAF70EC0292F30E09E3018F42850F9
:100F6000310902C02E50310981E001C0880F2A9555
:100F7000EAF78093570380915E0390915F03019796
:100F8000F1F780915C0390915D03892B21F18091B1
:100F90007B0190917C0123E082349207E1F000977D
:100FA00011F00E94D702809160038E7F80936003CE
:100FB00010927A011092790182E493E090937C017F
:100FC00080937B01E0915503F091560390818091CD
:100FD0005703892B80831092600210925F0240E0D9
:100FE00050E06CE572E440936502509366026093B2
:100FF00067027093680280E090E0A0E0B4E4809320
:10100000810290938202A0938302B093840221E034
:1010100030E0309300022093FF014093050250938B
:101020000602609307027093080280932102909356
:101030002202A0932302B093240222E030E03093F6
:10104000A00120939F014093A5015093A6016093B6
:10105000A7017093A8018093C1019093C201A0934E
:10106000C301B093C40160E084E00E94840160E0A9
:1010700084E00E94840182E493E00E949E02892B16
:1010800009F493C082E493E00E94B602833709F02A
:101090008CC089E492E00E94ED0260934502709357
:1010A0004602809347029093480289EE91E00E94A5
:1010B000ED026093E5017093E6018093E701909360
:1010C000E80189E891E00E94ED0260938501709348
:1010D0008601809387019093880161E084E00E94FB
:1010E00084018EE291E00E940B04609145027091B0
:1010F0004602809147029091480242E00E945E04BD
:101100008FE291E00E940B046091E5017091E6018D
:101110008091E7019091E80142E00E945E048FE235
:1011200091E00E940B04609185017091860180918D
:1011300087019091880142E00E945E048FE291E075
:101140000E940B042FB7F89480917D0190917E014D
:10115000A0917F01B09180012FBF0091810110917A
:1011600082012091830130918401BC01CD01601B7B
:10117000710B820B930B4AE00E941D0481E391E006
:101180000E940B042FB7F89480917D0190917E010D
:10119000A0917F01B09180012FBF80938101909336
:1011A0008201A0938301B09384010E944F015FCF1D
:1011B00084E191E0909343038093420382E493E0BF
:1011C0000C94D70297FB072E16F4009407D077FDF6
:1011D00009D00E94370907FC05D03EF4909581950F
:1011E0009F4F0895709561957F4F0895A1E21A2E43
:1011F000AA1BBB1BFD010DC0AA1FBB1FEE1FFF1FBB
:10120000A217B307E407F50720F0A21BB30BE40B0A
:10121000F50B661F771F881F991F1A9469F7609551
:101220007095809590959B01AC01BD01CF0108950B
:10123000052E97FB1EF400940E942F0957FD07D03E
:101240000E94F60807FC03D04EF40C942F09509529
:101250004095309521953F4F4F4F5F4F08959095A2
:101260008095709561957F4F8F4F9F4F0895AA1B72
:10127000BB1B51E107C0AA1FBB1FA617B70710F081
:10128000A61BB70B881F991F5A95A9F780959095B3
:10129000BC01CD010895EE0FFF1F0590F491E02DE4
:1012A00009945058BB27AA270E9469090C94DC0AAC
:1012B0000E94CE0A38F00E94D50A20F039F49F3FF0
:1012C00019F426F40C94CB0A0EF4E095E7FB0C9489
:1012D000C50AE92F0E94ED0A58F3BA17620773078F
:1012E0008407950720F079F4A6F50C940F0B0EF403
:1012F000E0950B2EBA2FA02D0B01B90190010C0126
:10130000CA01A0011124FF27591B99F0593F50F43D
:10131000503E68F11A16F040A22F232F342F442795
:10132000585FF3CF469537952795A795F04053958D
:10133000C9F77EF41F16BA0B620B730B840BBAF05D
:101340009150A1F0FF0FBB1F661F771F881FC2F7C8
:101350000EC0BA0F621F731F841F48F487957795DC
:101360006795B795F7959E3F08F0B0CF9395880F96
:1013700008F09927EE0F9795879508950E94A10A86
:1013800008F481E008950E94D7090C94DC0A0E94B9
:10139000D50A58F00E94CE0A40F029F45F3F29F0A8
:1013A0000C94C50A51110C94100B0C94CB0A0E949A
:1013B000ED0A68F39923B1F3552391F3951B550B6F
:1013C000BB27AA2762177307840738F09F5F5F4F18
:1013D000220F331F441FAA1FA9F335D00E2E3AF057
:1013E000E0E832D091505040E695001CCAF72BD06F
:1013F000FE2F29D0660F771F881FBB1F26173707C0
:101400004807AB07B0E809F0BB0B802DBF01FF27F1
:1014100093585F4F3AF09E3F510578F00C94C50AFF
:101420000C94100B5F3FE4F3983ED4F386957795C8
:101430006795B795F7959F5FC9F7880F911D9695AA
:10144000879597F90895E1E0660F771F881FBB1F06
:10145000621773078407BA0720F0621B730B840BB3
:10146000BA0BEE1F88F7E09508950E94F50A88F000
:101470009F5798F0B92F9927B751B0F0E1F0660F58
:10148000771F881F991F1AF0BA95C9F714C0B13099
:1014900091F00E940F0BB1E008950C940F0B672F91
:1014A000782F8827B85F39F0B93FCCF386957795C8
:1014B0006795B395D9F73EF49095809570956195B1
:1014C0007F4F8F4F9F4F0895E89409C097FB3EF4DC
:1014D00090958095709561957F4F8F4F9F4F992381
:1014E000A9F0F92F96E9BB279395F69587957795FF
:1014F0006795B795F111F8CFFAF4BB0F11F460FFBF
:101500001BC06F5F7F4F8F4F9F4F16C0882311F016
:1015100096E911C0772321F09EE8872F762F05C02A
:10152000662371F096E8862F70E060E02AF09A95C5
:10153000660F771F881FDAF7880F9695879597F9BA
:101540000895990F0008550FAA0BE0E8FEEF161654
:101550001706E807F907C0F012161306E407F507A7
:1015600098F0621B730B840B950B39F40A2661F01B
:10157000232B242B252B21F408950A2609F4A140BE
:10158000A6958FEF811D811D089597F99F6780E8CB
:1015900070E060E008959FEF80EC089500240A94C5
:1015A0001616170618060906089500240A9412163E
:1015B0001306140605060895092E0394000C11F471
:1015C000882352F0BB0F40F4BF2B11F460FF04C01E
:1015D0006F5F7F4F8F4F9F4F089557FD9058440F77
:1015E000551F59F05F3F71F04795880F97FB991F82
:1015F00061F09F3F79F0879508951216130614063F
:10160000551FF2CF4695F1DF08C0161617061806CB
:10161000991FF1CF86957105610508940895E894A6
:10162000BB2766277727CB0197F908950E94A10A67
:1016300008F48FEF08950E942E0B0C94DC0A0E9490
:10164000CE0A38F00E94D50A20F0952311F00C94B0
:10165000C50A0C94CB0A11240C94100B0E94ED0ABD
:1016600070F3959FC1F3950F50E0551F629FF001F5
:10167000729FBB27F00DB11D639FAA27F00DB11D0E
:10168000AA1F649F6627B00DA11D661F829F222797
:10169000B00DA11D621F739FB00DA11D621F839F1E
:1016A000A00D611D221F749F3327A00D611D231FF4
:1016B000849F600D211D822F762F6A2F11249F5742
:1016C00050409AF0F1F088234AF0EE0FFF1FBB1F45
:1016D000661F771F881F91505040A9F79E3F510504
:1016E00080F00C94C50A0C94100B5F3FE4F3983E15
:1016F000D4F3869577956795B795F795E7959F5FAE
:10170000C1F7FE2B880F911D9695879597F908953F
:1017100019F416F40C94CB0A0C94D30B0E94F50A1E
:10172000B8F39923C9F3B6F39F57550B87FF0E946F
:10173000E10B0024A0E640EA900180585695979569
:1017400028F4805C660F771F881F20F02617370764
:10175000480730F4621B730B840B202931294A2B74
:10176000A69517940794202531254A2758F7660F28
:10177000771F881F20F026173707480730F4620BC1
:10178000730B840B200D311D411DA09581F7B9010C
:10179000842F9158880F9695879508950E94A10AE5
:1017A000880B990B08959F3F31F0915020F4879555
:1017B00077956795B795880F911D9695879597F9B9
:1017C000089591505040660F771F881FD2F70895F3
:1017D00081E090E0F8940C94ED0B10E0C2E6D0E0CC
:1017E00004C0FE010E944B092196C336D107C9F7F8
:0417F000F894FFCF9B
:1017F40000000000DC005901AF008D00A1002301AE
:10180400000000004A0259019E02B6023102490258
:101814006E616E00696E66006F7666002E00635E10
:04182400000D0A00A9
:00000001FF
